:020000040800F2
:1000000000000220492500089D0A00089F0A0008F8
:10001000A10A0008A30A0008A50A000800000000C1
:10002000000000000000000000000000A70A000817
:10003000A90A000800000000AB0A0008AD0A000889
:100040009925000899250008992500089925000898
:100050009925000899250008B50A0008BF0A00087C
:100060009925000899250008992500089925000878
:100070009925000899250008992500089925000868
:100080009925000899250008992500089925000858
:10009000C90A000899250008992500089925000833
:1000A0009925000899250008992500089925000838
:1000B0009925000899250008992500089925000828
:1000C0009925000899250008992500089925000818
:1000D000992500089925000899250008D90A0008E3
:1000E00099250008992500089925000899250008F8
:1000F00099250008992500089925000899250008E8
:1001000099250008992500089925000899250008D7
:1001100099250008992500089925000899250008C7
:1001200099250008992500089925000899250008B7
:100130009925000800000000000000009925000833
:10014000E90A000899250008992500089925000862
:100150009925000899250008992500089925000887
:100160009925000899250008992500089925000877
:1001700099250008992500080000000000000000F3
:080180009925000899250008EB
:1001900001F0FF01102A2BDB10F0070F08D010F838
:1001A000013B013A8B422DD010F0070F42B3F6D13C
:1001B000F0B441EA012141EA014122F007047FF055
:1001C00000070023F0E80256083C85EA010586EAAC
:1001D000010685FA47F5A3FA87F586FA47F6A5FAE8
:1001E00087F68EB9EED1F0BC01F0FF0102F00702F4
:1001F00032B110F8013B013A83EA010313B1F8D19F
:100200000020704701387047002D06BF354603387F
:10021000073815F0010F07D1013015F4807F02BFB8
:10022000013015F4C03F0130F0BC0138704700BF09
:1002300053B94AB9002908BF00281CBF4FF0FF314D
:100240004FF0FF3000F00CB8ADF1080C6DE904CEB2
:1002500002F042FEDDF804E0DDE9022304B070475D
:10026000704700BF10B5054C237833B9044B13B168
:100270000448AFF300800123237010BD9C000020D0
:10028000000000009431000808B5034B1BB103497E
:100290000348AFF3008008BD00000000A00000206C
:1002A000943100082DE9F04782B007460D4690468C
:1002B0001E460A9CBDF82C90C1F8009008230B61E3
:1002C00000238B60CB6096F807A00721304600F032
:1002D00007FA82452BD00023237063701A4B1B78DA
:1002E000A3710721204600F0FBF99DF8303018403B
:1002F000E071164B9F4224D002221549684602F055
:100300004DF9684600F072F92146484600F080F940
:10031000434622462946384600F0F2FD0A4A137841
:10032000013303F00F03137002B0BDE8F0870A2316
:10033000237002236370074B9E42CFD10C23A3701E
:10034000CCE70122D9E700BFB8000020F00100206F
:10035000AC3100083000002010B584B0164B984234
:1003600004D0164B984214D004B010BD144C234650
:10037000144A002100F039FE134A01AB07CA03C337
:100380001A7001A800F032F92146A22000F040F9CD
:10039000EAE70E4C23460E4A002100F026FE0D4AE5
:1003A00001AB07CA03C31A7001A800F01FF9214668
:1003B000122000F02DF9D7E7F0010020C80100203D
:1003C000300000204C010020B8310008200000203F
:1003D000F0000020C431000800B585B01F4800F0CF
:1003E00005F902211E4801F0CBF90028F9D01FE0E1
:1003F000FF230293A22301931A4B00931A4B1B4A2B
:100400001B491C48FFF74EFF4FF4FA6000F0F4FB65
:100410000023029312230193174B0093174B184AA2
:1004200018491948FFF73EFF40F2C67000F0E4FBA0
:1004300002210B4801F0A4F90028D9D1134800F09B
:10044000D5F80221064801F09BF90028F9D01420C4
:1004500000F0D2FB05B05DF804FB00BFD03100080E
:10046000000002402800002020000020C0000020E2
:100470000C010020C80100203800002030000020BE
:10048000C400002068010020F0010020D8310008DD
:10049000022800D0704708B5142000F0ADFB0221FF
:1004A000034801F06DF900B108BDFFF795FFFBE7C8
:1004B00000000240F0B58BB0002405940694079428
:1004C0000894099401942B4B1A6B42F004021A63AE
:1004D0001A6B02F004020192019A02941A6B42F024
:1004E00080021A631A6B02F080020292029A03944D
:1004F0001A6B42F001021A631A6B02F001020392B6
:10050000039A04941A6B42F002021A631B6B03F005
:1005100002030493049B42F2F0030593012507951F
:1005200005A9154801F036F805954FF40413069314
:100530000795124F05A9384601F02CF802260596BA
:100540004FF488130693079405A9384601F022F862
:1005500022462946062000F097FF062000F0A4FF5F
:1005600022463146072000F08FFF072000F09CFF55
:100570000BB0F0BD0038024000080240000002400D
:1005800010B50E4901230B6200230B610D224A6254
:1005900008224A618B61CB614FF4A2520A604B6022
:1005A0008A60CB60064C204600F0E0FB204600F05D
:1005B00079FC0221204600F0CDFD10BD2401002071
:1005C000F0010020084B01221A6200221A610D215D
:1005D0005962132159619A61DA614FF410711960FF
:1005E0005A609960DA607047C800002010B5044670
:1005F00007E04FF0FF3301222146044801F06FFD70
:1006000001342378002BF4D110BD00BF80010020FD
:1006100070B584B006460D46294B1B68ADF80C300A
:100620001B0C8DF80E3042F22003ADF80830254B3C
:100630006C4693E8030084E80300234B1A682349BF
:10064000204601F0ABFF2046FFF7D0FF2048FFF720
:10065000CDFF32461F4903A801F0A0FF002308E0A8
:1006600003F110026A4412F8041C1B4AD1540133EE
:100670009BB2022BF4D9184B3A22DA7020221A715D
:10068000002414E02A5D154902A801F087FF04EB5D
:100690004403591D9DF808000F4A5054991D9DF8B8
:1006A0000900505407332021D1540134A4B2072C3F
:1006B000E8D909480A234377FFF798FF04B070BDD3
:1006C000FC31000800320008BC000020E4310008C2
:1006D000E8310008EC31000800000020F431000887
:1006E00000B586468C46002001460FE00B4615E01B
:1006F000013BDBB210463BB14200D2B210F0800F9A
:10070000F6D082F01D02F3E70131C9B2614509D884
:100710000029EBD0ACEB01031EF803305840C0B207
:100720000823E8E75DF804FB72B6FEE708B50E485B
:100730000E4B036001234360002383604FF08072FF
:10074000C2604FF4202202614FF4401242610376EE
:1007500043768376C3760377437700F061FA00B976
:1007600008BDFFF7E1FF00BFF0010020006400407A
:1007700008B50E480E4B03600123436000238360DD
:100780004FF08072C2604FF4202202614FF4401299
:100790004261037643768376C3760377437700F02E
:1007A0003FFA00B908BDFFF7BFFF00BFC801002036
:1007B0000068004008B50A480A4B03604FF4E13373
:1007C000436000238360C36003610C224261836144
:1007D000C36101F054FC00B908BDFFF7A5FF00BFDD
:1007E000800100200048004000B595B03022002173
:1007F00008A801F0F3FE00230393049305930693E6
:10080000079301931F4A116C41F080511164126CDF
:1008100002F080520192019A02931B4A116841F43E
:1008200080411160126802F480420292029A022210
:10083000089201210B9110210C910E920F93082325
:1008400010934023119312920423139308A800F0ED
:10085000ADFF90B90F230393022104910023059368
:100860004FF4C05306934FF48053079303A801F04D
:1008700007FA20B915B05DF804FBFFF755FFFFF745
:1008800053FF00BF003802400070004008B500F080
:1008900087F9FFF7A9FFFFF70DFEFFF747FFFFF707
:1008A00067FFFFF787FFFFF76BFEFFF78BFE034B3A
:1008B0001A68D36843F02003D360FEE7800100206C
:1008C00082B0002100910B4B5A6C42F480425A6472
:1008D0005A6C02F480420092009A01911A6C42F024
:1008E00080521A641B6C03F080530193019B02B089
:1008F000704700BF0038024030B58BB0002305932D
:10090000069307930893099303683E4A934204D0E1
:100910003D4A934236D00BB030BD3C4A1368013398
:100920001360012B21D000250195394B1A6B42F041
:1009300001021A631B6B03F001030193019B4FF447
:10094000C0530593022406940323089309230993B3
:1009500005A9304800F01EFE2A462146142000F06A
:1009600093FD142000F0A0FDD5E700230093284B51
:100970001A6C42F000721A641B6C03F0007300934F
:10098000009BD0E700230293214B1A6C42F0806257
:100990001A641B6C03F080630293029B1B4A13686A
:1009A00001331360012B20D000250495184B1A6BDE
:1009B00042F002021A631B6B03F002030493049BD0
:1009C00060230593022406940323089309230993C3
:1009D00005A9114800F0DEFD2A462146402000F01E
:1009E00053FD402000F060FD95E700230393084B82
:1009F0001A6C42F000721A641B6C03F000730393CC
:100A0000039BD1E70064004000680040180200200A
:100A100000380240000002400004024010B588B0D7
:100A20000023039304930593069307930268194BDD
:100A30009A4201D008B010BD0024019403F5F833A8
:100A40001A6C42F480221A641A6C02F48022019219
:100A5000019A02941A6B42F004021A631B6B03F0B2
:100A600004030293029B4FF4406303930223049315
:100A7000032306930723079303A9074800F08AFD81
:100A800022460121272000F0FFFC272000F00CFD6A
:100A9000D0E700BF0048004000080240FEE7FEE744
:100AA000FEE7FEE7FEE770477047704708B500F0C5
:100AB00091F808BD08B5012000F06AFE08BD08B530
:100AC000022000F065FE08BD08B5024800F060FB9A
:100AD00008BD00BFF001002008B5024801F0F2FB9C
:100AE00008BD00BF8001002008B5024800F050FB9F
:100AF00008BD00BFC801002010B503460C4A0D49CF
:100B00000D48006840B10C4800680344521A9342F3
:100B100006D8094A136010BD0748084C0460F2E784
:100B200001F064FD0C2303604FF0FF30F3E700BFDA
:100B300000000220000400001C02002070030020BE
:100B4000034AD2F8883043F47003C2F88830704703
:100B500000ED00E010B504460E4B1A784FF47A739E
:100B6000B3FBF2F30C4A1068B0FBF3F000F0A0FC0A
:100B700068B90F2C01D901200AE0002221464FF06C
:100B8000FF3000F081FC054B1C60002000E00120DC
:100B900010BD00BF4400002040000020480000209D
:100BA00008B50B4B1A6842F400721A601A6842F4D6
:100BB00080621A601A6842F480721A60032000F0A2
:100BC00051FC0020FFF7C6FFFFF77AFE002008BDAA
:100BD000003C0240034A1168034B1B780B4413602E
:100BE000704700BF2002002044000020014B18681D
:100BF000704700BF2002002038B50446FFF7F6FF1B
:100C00000546B4F1FF3F02D0044B1B781C44FFF7AC
:100C1000EDFF401BA042FAD338BD00BF44000020C6
:100C2000002800F0A18038B5044690F82030D3B1F8
:100C30002268136843F001031360FFF7D7FF0546EE
:100C400023685A6812F0010F10D1FFF7CFFF401B45
:100C50000A28F5D9636A43F400336362052384F8F4
:100C60002030012038BDFFF747FEE1E71A6822F087
:100C700002021A60FFF7BAFF054623685A6812F0AD
:100C8000020F0DD0FFF7B2FF401B0A28F5D9636AA7
:100C900043F400336362052384F820300120E1E748
:100CA000227E012A3DD01A6822F080021A60637EFB
:100CB000012B3BD02268136823F040031360A37E0E
:100CC000012B39D02268136823F020031360E37EE0
:100CD000012B37D02268136843F010031360237F81
:100CE000012B35D02268136823F008031360637F5B
:100CF000012B33D02268136823F004031360A36828
:100D0000E268134322691343626913436268013A3C
:100D100021681343CB6100206062012384F82030F6
:100D2000A0E71A6842F080021A60C0E722681368E0
:100D300043F040031360C2E72268136843F02003C6
:100D40001360C4E72268136823F010031360C6E73A
:100D50002268136843F008031360C8E72268136829
:100D600043F004031360CAE70120704790F8203075
:100D7000013BDBB2012B05D9436A43F48023436274
:100D80000120704730B5464BD3F8002242F00102F3
:100D9000C3F80022D3F8002222F47C52C3F80022C8
:100DA000D3F80022486A42EA0022C3F800224A69C6
:100DB00002F01F02012000FA02F2D3F81C026FEACF
:100DC000020C20EA0200C3F81C02CB69C3B9344B01
:100DD000D3F80C020CEA0000C3F80C028C884869B6
:100DE000CD6844EA0544483043F830408C680888B0
:100DF00040EA04404C6904F1480E03EBCE0358600E
:100E0000CB69012B1ED08B69002B33D12448D0F83D
:100E100004320CEA0303C0F804320B698BBB204890
:100E2000D0F814320CEA0303C0F814320B6A012B19
:100E30002ED01B4AD2F8003223F00103C2F8003250
:100E4000002030BD164BD3F80C021043C3F80C023F
:100E50008C8848690D6844EA0544483043F83040BE
:100E600088894C698D6840EA0540483403EBC40327
:100E70005860C8E70A48D0F804321343C0F8043277
:100E8000CBE70748D0F814321343C0F81432CDE74B
:100E90000349D1F81C321343C1F81C32C9E700BF23
:100EA0000064004070B5044690F82050EDB2012D6A
:100EB00006D0436A43F4002343620125284670BDEF
:100EC000022380F820300268136823F001031360C6
:100ED000FFF78CFE064623685B6813F0010F0CD009
:100EE000FFF784FE831B0A2BF5D9636A43F40033B2
:100EF0006362052384F82030E0E700256562DDE7C2
:100F000030B590F820C00468A4680CF1FF3C5FFA8B
:100F10008CFCBCF1010F62D814F0E05F59D0C4F32F
:100F2000016C012404FA0CF41C608B68002B3DD189
:100F30000D68CB68046843EA45550CF118031B01A2
:100F4000E55003680C690CF1180E03EB0E135C609E
:100F50000B7D012B35D0D17993791B0443EA0163D2
:100F6000517943EA012314790168234301EB0C1101
:100F7000C1F88C31D17893781B0443EA016351782E
:100F800043EA0123117802680B4302EB0C12C2F80A
:100F9000883102680CF1180C4FEA0C1C52F80C3026
:100FA00043F0010342F80C3000201DE04C6843EA96
:100FB000C403CC6823430CF11804240105682B51A9
:100FC000BFE7036803EB0E13596841F48071596061
:100FD000C1E7436A43F400134362012004E0436A1B
:100FE00043F480234362012030BD90F820C00CF10F
:100FF000FF3C5FFA8CFCBCF1010F00F2A58030B41D
:1010000051B90468E46814F0030F10D1436A43F443
:101010000013436201207EE00468246914F0030F8A
:1010200005D1436A43F400134362012073E005686D
:1010300001F11B0424012C5904F004049460002CD9
:101040006BD1056801F11B0424012C59640D146057
:10105000046801F11B0C4FEA0C1C54F80C4004F01E
:101060000204D4600468A444DCF8045015F0080FAE
:101070005BD008241461046801F11B0C04EB0C1410
:101080006468C4F307249461046804EB0C14646876
:10109000240C5461026802EB0112D2F8B8211A70D4
:1010A000026802EB0112D2F8B821C2F307225A708B
:1010B000026802EB0112D2F8B821C2F307429A701B
:1010C000026802EB0112D2F8B821120EDA7002683F
:1010D00002EB0112D2F8BC211A71026802EB011274
:1010E000D2F8BC21C2F307225A71026802EB011246
:1010F000D2F8BC21C2F307429A71026802EB0112D6
:10110000D2F8BC21120EDA71C1B90268D36843F07B
:101110002003D360002030BC7047056801F11B0438
:1011200024012C59E408546092E701F11B0504EBFB
:101130000514646804F00F0414619CE702681369E5
:1011400043F020031361E5E7436A43F480234362DD
:101150000120704790F82030013BDBB2012B05D90C
:10116000436A43F480234362012070470268536955
:101170000B435361002070477047704770477047BA
:1011800070477047704770477047704770477047A7
:101190002DE9F84F054603685C69D3F804809F6821
:1011A000D3F80CA0D3F81090D3F818B014F00106BF
:1011B0003BD017F0010616D001229A6017F0020FFB
:1011C00008D117F0040F0CD117F0080606D04FF421
:1011D000805608E0FFF7D0FF002604E0FFF7CFFFBE
:1011E00001E04FF4006617F4807F0DD02B684FF4B8
:1011F00080729A6017F4007F40F0968017F4806F39
:1012000000F0968046F4005617F4803F0DD02B680E
:101210004FF480329A6017F4003F40F0938017F447
:10122000802F00F0938046F4004614F0080F07D09A
:101230001AF0100F04D046F400762B681022DA6002
:1012400014F0040F03D01AF0080F40F0898014F056
:10125000020F05D02B68DB6813F0030F40F0878086
:1012600014F0400F07D019F0100F04D046F4806638
:101270002B6810221A6114F0200F02D019F0080F09
:1012800079D114F0100F04D02B681B6913F0030FF1
:1012900078D114F4003F02D018F0100F76D114F476
:1012A000803F02D018F0080F77D114F4004F37D0E8
:1012B00018F0040F31D014F4807F04D01BF0010F1C
:1012C00001D046F0010614F4007F04D01BF0020F99
:1012D00001D046F0020614F4806F04D01BF0040F16
:1012E00001D046F0040614F4006F16D01BF0700B0A
:1012F00013D0BBF1400F66D056D8BBF1200F5CD0A5
:10130000BBF1300F5CD0BBF1100F01D146F00806E5
:101310002A68936923F0700393612B6804225A6052
:10132000002E56D1BDE8F88F2846FFF726FF6BE761
:1013300017F4006F02D046F4804665E72846FFF7B1
:101340001FFF61E72846FFF719FF6EE717F4002F2C
:1013500002D046F4803668E72846FFF712FF64E7BC
:101360002B680822DA602846FFF70CFF6FE7284653
:10137000FEF7F2FF74E72B6808221A612846FFF790
:1013800003FF7EE72846FFF7FEFE82E72B68102268
:101390005A602846FFF7F9FE81E72B6808225A6059
:1013A0002846FFF7F3FE80E7BBF1500F0ED0BBF1EC
:1013B000600FADD146F48076AAE746F01006A7E7A5
:1013C00046F02006A4E746F04006A1E746F0800676
:1013D0009EE76B6A33436B622846FFF7D8FEA1E7AE
:1013E000002807DB00F01F02400901239340024A56
:1013F00042F82030704700BF00E100E0002808DB21
:101400000901C9B200F1604000F5614080F80013A5
:10141000704700F00F000901C9B2014B1954704721
:1014200014ED00E000B500F00700C0F1070CBCF1BE
:10143000040F28BF4FF0040C031D062B0FD9C31E49
:101440004FF0FF3E0EFA0CF021EA000199400EFA2F
:1014500003FE22EA0E0241EA02005DF804FB0023CB
:10146000EEE70000074AD36823F4E0631B041B0C7B
:10147000000200F4E060034343F0BF6343F4003331
:10148000D360704700ED00E010B50446054BD86806
:10149000C0F30220FFF7C6FF01462046FFF7AEFF6C
:1014A00010BD00BF00ED00E008B5FFF799FF08BDD3
:1014B0000138B0F1807F0BD24FF0E0235861054A2C
:1014C000F02182F823100020986107221A617047EA
:1014D0000120704700ED00E070B50446866DFFF70F
:1014E00085FB94F83530DBB2022B06D08023636590
:1014F000002384F83430012070BD0546226813684B
:1015000023F0160313602268536923F080035361AC
:10151000236CE3B12268136823F008031360226888
:10152000136823F00103136023681B6813F0010F95
:1015300011D0FFF75BFB431B052BF5D92023636517
:10154000032084F83500002384F83430D4E7A36CFA
:10155000002BDFD1E3E7E26D3F239340B36001232B
:1015600084F83530002084F83400C5E790F8353031
:10157000DBB2022B03D08023436501207047052393
:1015800080F835300268136823F0010313600020EF
:101590007047000000230F2B00F2E98070B582B085
:1015A00065E085684FEA430E032404FA0EF425EA49
:1015B0000405CC6804FA0EF42C438460446824EAE1
:1015C00002044A68C2F300129A40224342605CE07F
:1015D000DC08083450F8242003F00705AD004FF074
:1015E0000F0E0EFA05FE22EA0E0E0A69AA4042EA22
:1015F0000E0240F824205CE0072200E0002202FAFC
:101600000EF22A4302345A4D45F82420594A946870
:101610006FEA0C0224EA0C054E6816F4801F01D014
:101620004CEA0405534CA560E46802EA04054E68E0
:1016300016F4001F01D04CEA04054E4CE5606468C6
:1016400002EA04054E6816F4003F01D04CEA040596
:10165000484C6560246822404D6815F4803F01D0F5
:101660004CEA0402434C226001330F2B7DD8012247
:101670009A400C6804EA020C32EA0404F4D14C6883
:1016800004F00304013C012C8BD94A6802F00302E8
:10169000032A09D0C4685D000322AA4024EA020498
:1016A0008A68AA402243C2604A6802F00302022A02
:1016B0008ED004684FEA430E032202FA0EF224EAA7
:1016C00002044A6802F0030202FA0EF222430260A8
:1016D0004A6812F4403FC7D000220192264A546C57
:1016E00044F480445464526C02F480420192019AA2
:1016F0009C08A51C1E4A52F8255003F0030E4FEA21
:101700008E0E0F2202FA0EF225EA02051B4A9042C3
:101710003FF474AF02F5806290421AD002F5806205
:10172000904218D002F58062904216D002F5806295
:10173000904214D002F58062904212D002F580628D
:10174000904210D002F5806290423FF455AF0822DB
:1017500055E7012253E7022251E703224FE7042213
:101760004DE705224BE7062249E702B070BD7047FE
:1017700000380140003C01400038024000000240B7
:101780000369194201D00120704700207047000012
:1017900008B5054B5B69034200D108BD024B586197
:1017A000FEF776FEF9E700BF003C0140002800F09C
:1017B000E08170B582B00446036813F0010F3BD09E
:1017C0009F4B9B6803F00C03042B2CD09C4B9B6815
:1017D00003F00C03082B21D06368B3F5803F4FD092
:1017E000B3F5A02F52D0964B1A6822F480321A60BB
:1017F0001A6822F480221A606368002B50D0FFF729
:10180000F5F905468E4B1B6813F4003F14D1FFF722
:10181000EDF9401B6428F5D90320B1E1884B5B68E2
:1018200013F4800FD8D0864B1B6813F4003F03D00D
:101830006368002B00F09F81236813F0020F54D0DF
:101840007F4B9B6813F00C0F3ED07D4B9B6803F0E1
:101850000C03082B33D0E368002B68D0794B0122AE
:101860001A60FFF7C3F90546754B1B6813F0020FAA
:1018700054D1FFF7BBF9401B0228F5D903207FE1C3
:101880006F4A136843F480331360B5E76C4B1A68F2
:1018900042F480221A601A6842F480321A60ABE780
:1018A000FFF7A4F90546664B1B6813F4003FC3D04D
:1018B000FFF79CF9401B6428F5D9032060E1604BD9
:1018C0005B6813F4800FC6D15D4B1B6813F0020FE9
:1018D00003D0E368012B40F05081594A136823F08C
:1018E000F803216943EAC1031360236813F0080F6A
:1018F00042D063696BB3534B0122C3F8802EFFF7CC
:1019000075F905464E4B5B6F13F0020F34D1FFF7AC
:101910006DF9401B0228F5D9032031E1484A1368CC
:1019200023F0F803216943EAC1031360DDE7454B67
:1019300000221A60FFF75AF90546414B1B6813F065
:10194000020FD2D0FFF752F9401B0228F5D903202D
:1019500016E13C4B0022C3F8802EFFF747F90546FD
:10196000374B5B6F13F0020F06D0FFF73FF9401BB8
:101970000228F5D9032003E1236813F0040F77D080
:101980002F4B1B6C13F0805F33D1002301932C4B42
:101990001A6C42F080521A641B6C03F0805301935E
:1019A000019B0125284B1B6813F4807F23D0A3687B
:1019B000012B34D0052B38D0214B1A6F22F00102B5
:1019C0001A671A6F22F004021A67A368002B3DD031
:1019D000FFF70CF906461A4B1B6F13F0020F46D1A6
:1019E000FFF704F9801B41F288339842F3D90320B2
:1019F000C6E00025D6E7144A136843F480731360E9
:101A0000FFF7F4F80646104B1B6813F4807FCED125
:101A1000FFF7ECF8801B0228F5D90320B0E0084A54
:101A2000136F43F001031367CFE7054B1A6F42F0C2
:101A300004021A671A6F42F001021A67C5E700BF75
:101A4000003802400000474200700040FFF7CEF827
:101A50000646524B1B6F13F0020F08D0FFF7C6F873
:101A6000801B41F288339842F3D9032088E0EDB916
:101A7000A369002B00F08380484A926802F00C02B0
:101A8000082A51D0022B17D0454B00221A66FFF7C7
:101A9000ADF80446414B1B6813F0007F42D0FFF7BE
:101AA000A5F8001B0228F5D9032069E03B4A136C16
:101AB00023F080531364DBE7394B00221A66FFF7EB
:101AC00095F80546354B1B6813F0007F06D0FFF7ED
:101AD0008DF8401B0228F5D9032051E0E369226A02
:101AE0001343626A43EA8213A26A5208013A43EA44
:101AF0000243E26A43EA0263284A5360284B012208
:101B00001A66FFF773F80446244B1B6813F0007F36
:101B100006D1FFF76BF8001B0228F5D903202FE050
:101B200000202DE000202BE0012B2BD01B4B5B680D
:101B300003F48001E269914226D103F03F02216A59
:101B40008A4223D1616A47F6C0721A40B2EB811F04
:101B50001ED103F44031A26A5208013AB1EB024FA0
:101B600018D103F07063E26AB3EB026F14D1002066
:101B700006E001207047012002E0012000E0002083
:101B800002B070BD0120FBE70120F9E70120F7E773
:101B90000120F5E70120F3E70120F1E700380240DA
:101BA0000000474208B5334B9B6803F00C03042B3D
:101BB0005BD0082B5BD12F4B5A6802F03F025B6869
:101BC00013F4800F2CD02B4B5868C0F388104FEAC9
:101BD000401CBCEB000C6EEB0E0E4FEA8E1343EA7A
:101BE0009C634FEA8C11B1EB0C0163EB0E03DB003D
:101BF00043EA5173C90011EB000C43F10003590291
:101C000000234FEA4C2041EADC51FEF711FB194B4F
:101C10005B68C3F3014301335B00B0FBF3F008BD25
:101C2000144B5868C0F388104FEA401CBCEB000C02
:101C30006EEB0E0E4FEA8E1343EA9C634FEA8C1153
:101C4000B1EB0C0163EB0E03DB0043EA5173C900F7
:101C500011EB000C43F10003990200234FEA8C20A2
:101C600041EA9C51FEF7E4FAD1E70348D7E703487D
:101C7000D5E700BF0038024000127A000024F400CB
:101C8000002800F09B8070B50D4604464F4B1B6842
:101C900003F007038B4208D2CBB24C4A137013688F
:101CA00003F007038B4240F08B80236813F0020F90
:101CB00017D013F0040F04D0454A936843F4E0535F
:101CC0009360236813F0080F04D0414A936843F4EB
:101CD000604393603E4A936823F0F003A1680B438E
:101CE0009360236813F0010F32D06368012B21D079
:101CF0009A1E012A25D9364A126812F0020F61D0C5
:101D000033498A6822F0030213438B60FEF76EFFAB
:101D100006462F4B9B6803F00C036268B3EB820FFF
:101D200016D0FEF763FF801B41F288339842F0D94A
:101D3000032042E0264A126812F4003FE0D101205D
:101D40003BE0234A126812F0007FD9D1012034E031
:101D50001E4B1B6803F00703AB4207D9EAB21B4BCB
:101D60001A701B6803F00703AB422DD1236813F0F0
:101D7000040F06D0164A936823F4E053E1680B433E
:101D80009360236813F0080F07D0114A936823F477
:101D90006043216943EAC1039360FFF703FF0C4BE3
:101DA0009B68C3F303130B4AD35CD8400A4B1860FB
:101DB0000A4B1868FEF7CEFE002070BD0120704768
:101DC0000120FAE70120F8E70120F6E7003C024095
:101DD0000038024014320008400000204800002073
:101DE000014B1868704700BF4000002008B5FFF79E
:101DF000F7FF044B9B68C3F38223034AD35CD840AC
:101E000008BD00BF003802400C32000808B5FFF7DB
:101E1000E7FF044B9B68C3F34233034AD35CD840CB
:101E200008BD00BF003802400C320008026802F111
:101E30000C0353E8003F23F490730C3242E8003166
:101E40000029F3D1026802F1140353E8003F23F0A4
:101E50000103143242E800310029F3D1036B012B56
:101E600005D0202380F842300023036370470268C6
:101E700002F10C0353E8003F23F010030C3242E858
:101E800000310029F3D1ECE790F84130DBB2212B8F
:101E900001D0022070478368B3F5805F17D0036AD2
:101EA0005A1C02621A7803685A60C38C9BB2013BC9
:101EB0009BB2C3844BB90268D36823F08003D3601C
:101EC0000268D36843F04003D36000207047036981
:101ED000002BE4D1036A1B880268C3F30803536034
:101EE000036A02330362E0E710B50446026813692F
:101EF00023F44053C1680B431361836802691A439A
:101F000043691A43C3691A430168CB6823F4164333
:101F100023F00C031343CB600268536923F440732E
:101F200081690B4353610368314A934206D002F53D
:101F30008062934202D0FFF759FF01E0FFF766FF8E
:101F4000E369B3F5004F29D00021031849411B185C
:101F500041F10001C90041EA5371DB0018186368C0
:101F60004FEA83024FEA937341F10001FEF760F9F3
:101F7000204AA2FB00314909642303FB11031B0122
:101F80003233A2FB03235B0903F0F00202EB0112E0
:101F900003F00F03216813448B6010BD0023021867
:101FA00043EB0301121841F10001C90041EA5271EB
:101FB000D200101841F10001626892185B41FEF7EF
:101FC00037F90C4AA2FB00314909642303FB1103D2
:101FD000DB003233A2FB03235B095A0002F4F872E0
:101FE00002EB011203F00703216813448B60D4E76E
:101FF000001001401F85EB512DE9F04383B00546E9
:102000000E4617469946DDF828802B681C6836EA8C
:1020100004040CBF01240024BC4228D1B8F1FF3FC6
:10202000F3D0FEF7E3FDA0EB0900404523D8B8F15B
:10203000000F22D02B68DA6812F0040FE5D0802E52
:10204000E3D0402EE1D01A6812F0080FDDD0002452
:1020500001941A6801925B680193019B2846FFF77F
:10206000E5FE08236B6485F84040012000E0002075
:1020700003B0BDE8F0830320FAE70320F8E760B37C
:1020800010B5044690F8413013B3242384F841304E
:102090002268D36823F40053D3602046FFF724FF5F
:1020A0002268136923F4904313612268536923F073
:1020B0002A0353612268D36843F40053D36000209D
:1020C0006064202384F8413084F84230606310BD9E
:1020D00080F84030FEF7A2FCD7E7012070472DE9D9
:1020E000F04182B01E4690F84130DBB2202B56D131
:1020F00004460D469046002955D00AB901204FE00C
:1021000000234364212380F84130FEF76FFD07462A
:10211000A4F82480A4F82680A368B3F5805F02D0D9
:102120004FF0000814E023692BB34FF000080FE0D4
:10213000202384F84130032032E038F8023B226843
:10214000C3F308035360E28C92B2013A92B2E28484
:10215000E38C9BB293B100963B460022802120463F
:10216000FFF74AFF0028E3D1002DE6D015F8012B38
:1021700023685A60E7E7A8460025E9E700963B4652
:10218000002240212046FFF737FF18B9202384F8AA
:10219000413005E0202384F84130032000E0022094
:1021A00002B0BDE8F0810120FAE7704708B5016888
:1021B000CA6822F04002CA60202280F84120FFF75E
:1021C000F4FF002008BD7047704708B5806B0023FE
:1021D000C385C384FFF7F8FF08BD704790F842300D
:1021E000DBB2222B69D18368B3F5805F4FD0826A5E
:1021F000B3F5805F04D0002B56D10369002B53D177
:1022000003685B681370836A01338362C38D9BB27A
:10221000013B9BB2C385002B51D100B583B002684E
:10222000D36823F02003D3600268D36823F480735B
:10223000D3600268536923F001035361202380F8BF
:10224000423000234363036B012B33D1002303632C
:10225000026802F10C0353E8003F23F010030C3234
:1022600042E800310029F3D103681A6812F0100F18
:1022700006D0002201921A6801925B680193019BCB
:10228000818DFFF7AAFF002003B05DF804FB02690F
:10229000002AACD1826A03685B68C3F30803138029
:1022A000836A02338362B1E703685B6803F07F03EC
:1022B0001370A8E7FFF787FFE5E7022070470020CB
:1022C0007047000010B582B0044602681368D068F9
:1022D000516913F00F0F09D113F0200F0CD010F03B
:1022E000200F09D02046FFF779FF16E011F0010119
:1022F00015D110F4907F12D1216B012979D013F000
:10230000800F03D010F0800F40F0148113F0400FC5
:1023100003D010F0400F40F0118102B010BD13F057
:10232000010F06D010F4807F03D0626C42F00102EE
:10233000626413F0040F04D019B1626C42F002021F
:10234000626413F0020F04D019B1626C42F004020F
:10235000626413F0080F07D010F0200F00D119B1FC
:10236000626C42F008026264626C002AD5D013F0FD
:10237000200F02D010F0200F29D123685B6903F0F1
:102380004003626C12F0080F00D163B32046FFF7E0
:102390004DFD23685B6913F0400F20D0226802F1E5
:1023A000140353E8003F23F04003143242E80031A5
:1023B0000029F3D1E36B73B1624A1A65E06BFFF752
:1023C000D5F80028A9D0E06B036D9847A5E7204613
:1023D000FFF704FFD1E72046FFF7F6FE9DE7204612
:1023E000FFF7F2FE99E72046FFF7EEFE0023636455
:1023F00093E713F0100F82D010F0100F3FF47FAF6F
:10240000002301931368019353680193019B53695F
:1024100013F0400F52D0E26B13685B689BB2002B45
:102420003FF47BAFA18D99427FF677AFE385D36907
:10243000B3F5807F37D0226802F10C0353E8003FE8
:1024400023F480730C3242E800310029F3D1226872
:1024500002F1140353E8003F23F00103143242E871
:1024600000310029F3D1226802F1140353E8003F40
:1024700023F04003143242E800310029F3D1202335
:1024800084F8423000232363226802F10C0353E8EE
:10249000003F23F010030C3242E800310029F3D151
:1024A000E06BFFF719F802236363A18DE38D9BB204
:1024B000C91A89B22046FFF790FE2EE7A18DE38D61
:1024C0009BB2C91A89B2E38D9BB2002B3FF425AFB2
:1024D00000293FF422AF226802F10C0353E8003FC9
:1024E00023F490730C3242E800300028F3D12268C4
:1024F00002F1140353E8003F23F00103143242E8D1
:1025000000300028F3D1202384F8423000232363D5
:10251000226802F10C0353E8003F23F010030C3251
:1025200042E800300028F3D1022363632046FFF71E
:1025300054FEF2E62046FFF7A7FCEEE62046FFF742
:1025400035FEEAE6CB210008DFF834D0FEF7F8FAD2
:102550000C480D490D4A002302E0D458C4500433FE
:10256000C4188C42F9D30A4A0A4C002301E01360D4
:102570000432A242FBD300F03FF8FEF787F9704720
:1025800000000220000000209C00002068320008AB
:102590009C0000206C030020FEE700000EB400B594
:1025A0009CB01DAB029006906FF000410948079166
:1025B0000491094953F8042B05910068019302A97D
:1025C00000F094F9029B00221A701CB05DF804EB35
:1025D00003B070474C0000200802FFFF024403468E
:1025E000934200D1704703F8011BF9E7014B1868CB
:1025F000704700BF4C00002070B50D4D0D4C641BA2
:10260000A4100026A64209D10B4D0C4C00F0C2FDCF
:10261000641BA4100026A64205D170BD55F8043BEA
:1026200098470136EEE755F8043B98470136F2E744
:10263000603200086032000860320008643200082E
:102640007047704738B50546002941D051F8043C21
:102650000C1F002BB8BFE41800F0E0F81D4A136807
:1026600033B9636014602846BDE8384000F0DCB838
:10267000A34208D9206821188B4201BF19685B6802
:1026800009182160EDE71A465B680BB1A342FAD93D
:1026900011685018A0420BD12068014450188342A1
:1026A0001160E0D118685B68536008441060DAE795
:1026B00002D90C232B60D6E7206821188B4204BF77
:1026C00019685B68636004BF091821605460CAE739
:1026D00038BD00BF6803002070B50F4E0C4631684E
:1026E000054611B900F0A4FB30602146284600F0F1
:1026F0009FFB431C03D14FF0FF34204670BDC41C28
:1027000024F00304A042F8D0211A284600F090FBE0
:102710000130F2D1EFE700BF640300202DE9F84358
:10272000CD1C25F0030508350C2D38BF0C25002DD8
:10273000064601DBA94204D90C2333600020BDE822
:10274000F883DFF8D48000F069F8D8F800301C4630
:1027500044BB29463046FFF7BFFF431C044658D10F
:10276000D8F800402746002F43D1002C4BD02368D7
:102770003946304604EB030900F05AFB814542D14B
:1027800021686D1A29463046FFF7A6FF01303AD07E
:1027900023682B442360D8F800305A6862BBC8F81D
:1027A00000700FE02268521B20D40B2A17D9611940
:1027B000A342256018BF5960636808BFC8F80010BD
:1027C00062514B60304600F02FF804F10B00231DDE
:1027D00020F00700C21A1CBF1B1AA350AFE76268A3
:1027E000A3420CBFC8F800205A60EBE72346646898
:1027F000AEE73C467F68B6E71A465B68A342FBD16A
:1028000000235360DEE70C233360304600F00CF801
:1028100094E70560D6E700BF680300200148FFF792
:102820000FBF00BF600300200148FFF70ABF00BFD1
:10283000600300202DE9F0478E681F46BE420B68FA
:1028400082460C4690462DD8B1F90C2012F4906FB8
:1028500026D06569096905EB4505A3EB010905EB80
:10286000D5757B1C4B446D109D4238BF1D465305EA
:1028700027D52946FFF752FF064660B321694A462D
:1028800000F0E6FAA38923F4906343F08003A38168
:10289000266165614E44A5EB09052660A5603E46AC
:1028A000BE4200D93E4620683246414600F0A6FAB4
:1028B000A3689B1BA3602368334423600020BDE80A
:1028C000F0872A4600F0D2FA06460028E0D12169B6
:1028D0005046FFF7B7FE0C23CAF80030A38943F037
:1028E0004003A3814FF0FF30E9E700002DE9F04FEE
:1028F00098468B891B069DB007460D46144610D599
:102900000B6973B94021FFF709FF2860286130B9CE
:102910000C233B604FF0FF301DB0BDE8F08F40232B
:102920006B610023099320238DF82930CDF80C80AA
:102930003023DFF89C818DF82A304FF001092346BF
:102940009A4613F8012B0AB1252AF9D1BAEB040BE8
:102950000BD05B46224629463846FFF76BFF013015
:1029600000F0A780099A5A4409929AF80030002B87
:1029700000F09F8000234FF0FF32CDE905230AF1DC
:10298000010A049307938DF853301A935446052295
:1029900014F8011B4E48FDF7FBFB049AD8B9D0068A
:1029A00044BF20238DF85330110744BF2B238DF8EB
:1029B00053309AF800302A2B15D0079A544600203D
:1029C0004FF00A0C214611F8013B303B092B4BD943
:1029D000B0B1079214E0A0EB080309FA03F3134324
:1029E0000493A246D2E7039B191D1B680391002B99
:1029F000BBBF5B4242F0020207930793B8BF049249
:102A000023782E2B0AD163782A2B32D1039B1A1DEF
:102A10001B68039243EAE37302340593DFF8C0A016
:102A2000217803225046FDF7B3FB38B1049BA0EB9D
:102A30000A004022824013430134049314F8011B1E
:102A400024488DF828100622FDF7A2FB002836D076
:102A5000214B1BBB039B073323F00703083303936E
:102A6000099B334409936AE70CFB02320C460120B0
:102A7000A8E700230134059319464FF00A0C2046BD
:102A800010F8012B303A092A03D9002BC6D0059142
:102A9000C4E70CFB012104460123F0E703AB0093DC
:102AA0002A460E4B04A93846AFF30080421C064666
:102AB000D6D1AB895B063FF52DAF09982CE703AB68
:102AC00000932A46054B04A9384600F079F8EDE753
:102AD000243200082E3200080000000035280008CB
:102AE0002A3200082DE9F047164698468A680B6995
:102AF000DDF820909342B8BF1346336091F843202D
:102B000007460C460AB1013333602368990642BF79
:102B1000336802333360256815F0060506D104F1E9
:102B2000190AE36832689B1AAB4226DC94F84330FA
:102B30002268003B18BF012392062BD404F1430204
:102B400041463846C84701301ED02368226903F049
:102B50000603042B02BFE5683368ED1AA3680CBFB7
:102B600025EAE57500259342C4BF9B1AED1800269F
:102B70001A34B5421AD1002008E0012352464146DA
:102B80003846C847013003D14FF0FF30BDE8F08729
:102B90000135C6E7E1185A1C302081F84300224471
:102BA00094F8451082F843100233C7E70123224608
:102BB00041463846C8470130E6D00136D9E7000023
:102BC0002DE9FF470F7E0C9E782F914680460C46DC
:102BD0009A4601F1430207D8622F0AD8002F00F06D
:102BE000D180582F00F0B88004F1420684F842707A
:102BF0003AE0A7F16303152BF6D801A151F823F0B1
:102C0000592C00086D2C0008E92B0008E92B00085E
:102C1000E92B0008E92B00086D2C0008E92B0008BF
:102C2000E92B0008E92B0008E92B00086B2D0008B0
:102C3000972C0008252D0008E92B0008E92B000837
:102C40008D2D0008E92B0008972C0008E92B0008BF
:102C5000E92B00082D2D000833681A1D1B6832600F
:102C600004F1420684F8423001239CE03368206876
:102C7000191D3160060601D51D6803E04506FBD528
:102C8000B3F90050002D03DA2D236D4284F8433050
:102C900058480A2311E021683368080653F8045B9A
:102CA00002D4490648BFADB26F2F5248336014BFFB
:102CB0000A230823002184F843106668A660002ECA
:102CC00005DB21682E4321F0040121604BD016461C
:102CD000B5FBF3F103FB1157C75D06F8017D2F46E5
:102CE000BB420D46F4D9082B0BD12368DF0708D56A
:102CF000236961689942DEBF302306F8013C06F182
:102D0000FF36921B2261CDF800A04B4603AA214654
:102D10004046FFF7E7FE01304AD14FF0FF3004B0E4
:102D2000BDE8F087236843F020032360324878270A
:102D300084F84570236831681F0651F8045B02D49B
:102D40005F0648BFADB23160D90744BF43F02003EE
:102D500023601DB11023ADE72648E9E7236823F07F
:102D600020032360F6E71646BDE7336825686169EE
:102D7000181D30602E061B6801D5196002E0680638
:102D8000FBD51980002323611646BCE733681A1D62
:102D900032601E68626800213046FDF7F9F908B11B
:102DA000801B606063682361002384F84330AAE7D6
:102DB0002369324649464046D0470130ADD02368AA
:102DC0009B0713D4E068039B9842B8BF1846A6E758
:102DD0000123324649464046D04701309DD0013557
:102DE000E36803995B1AAB42F2DCEBE7002504F1E0
:102DF0001906F5E73532000846320008884210B55A
:102E000001EB020402D98442234607D8431EA142A3
:102E100008D011F8012B03F8012FF8E7024401460E
:102E20008A4200D110BD13F8014D02F8014DF7E7B9
:102E300038B5064D0023044608462B60FDF75CFEBE
:102E4000431C02D12B6803B1236038BD5C03002012
:102E50000A44914200F1FF3300D1704710B511F8D8
:102E6000014B03F8014F9142F9D110BD2DE9F0411A
:102E7000074614460D4621B9BDE8F0411146FFF75B
:102E80004DBC2AB9FFF7DEFB25462846BDE8F08198
:102E900000F01AF88442064602D8B4EB500FF4D87A
:102EA00021463846FFF73AFC804608B94546ECE72C
:102EB000B4422246294628BF3246FFF7C9FF2946B9
:102EC0003846FFF7BFFBF1E751F8043C181F002B11
:102ED000BCBF0B58C01870472DE9F047089D0E463F
:102EE00004460F46002B4AD194468C45B2FA82F232
:102EF00060D942B1C2F12003974020FA03F30CFAE3
:102F000002FC1F4394404FEA1C4E1FFA8CF6B7FB9D
:102F1000FEF1230C0EFB117743EA074301FB06F099
:102F200098420AD91CEB030301F1FF3780F01581A9
:102F3000984240F21281023963441B1AA4B2B3FBD7
:102F4000FEF00EFB103344EA034400FB06F6A642F3
:102F50000AD91CEB040400F1FF3380F00081A64283
:102F600040F2FD806444023840EA0140A41B002185
:102F70001DB1D4400023C5E90043BDE8F0878B4272
:102F800005D90DB1C5E9000100210846F5E7B3FAFE
:102F900083F1002946D1B34202D3824200F2F58088
:102FA000841A66EB030201201746002DE5D0C5E91F
:102FB0000047E2E7002A40F09380A1EB0C034FEAC0
:102FC0001C471FFA8CFE0121B3FBF7F607FB1630F6
:102FD000230C43EA00430EFB06F0984208D91CEB91
:102FE000030306F1FF3802D2984200F2D080464631
:102FF0001B1AA4B2B3FBF7F007FB103344EA0344F7
:103000000EFB00FEA64508D91CEB040400F1FF33BB
:1030100002D2A64500F2B6801846A4EB0E0440EAA0
:103020000640A5E7C1F120078B4022FA07FC4CEAD5
:10303000030C06FA01FE20FA07F426FA07F344EA25
:103040000E0400FA01F84FEA1C404FEA1449B3FBA2
:10305000F0FE1FFA8CF600FB1E3349EA03430EFB19
:1030600006F9994502FA01F20BD91CEB03030EF1A4
:10307000FF3A80F08580994540F28280AEF1020EE1
:103080006344A3EB0909A4B2B9FBF0F300FB139965
:1030900044EA094403FB06F6A64208D91CEB0404E3
:1030A00003F1FF3068D2A64266D9023B644443EA8A
:1030B0000E40A41BA0FB02E6B4427346B14652D3B5
:1030C0004FD05DB1B8EB030264EB090404FA07F7D3
:1030D00022FA01F31F43CC40C5E9007400214CE7FC
:1030E000C2F1200120FA01F30CFA02FC26FA01F1E8
:1030F000964033434FEA1C471FFA8CFEB1FBF7F0B2
:1031000007FB1016190C41EA064100FB0EF68E4231
:1031100004FA02F408D91CEB010100F1FF382DD2AA
:103120008E422BD902386144891B9BB2B1FBF7F662
:1031300007FB161143EA014306FB0EF1994208D939
:103140001CEB030306F1FF3814D2994212D9023E58
:1031500063445B1A46EA004136E73946EDE6184615
:1031600002E7F045ADD2BEEB020366EB0C06013878
:10317000B146A6E74646ECE7034698E74046D3E764
:10318000D6467EE76444023847E708460DE7023E2C
:1031900063442DE7F8B500BFF8BC08BC9E467047F5
:0C31A000F8B500BFF8BC08BC9E467047A4
:1031AC0043414E257554580A0000000043414E31EE
:1031BC002052580A0000000043414E322052580A57
:1031CC00000000004947204F46460A002D3E20498A
:1031DC0047204F4E0A00000025640000200000002C
:1031EC002530335800000000253032580000000014
:1031FC002020200020202020202020200000000063
:10320C0000000000010203040000000000000000A8
:10321C000102030406070809232D302B2000686CDB
:10322C004C006566674546470030313233343536DD
:10323C003738394142434445460030313233343516
:0C324C0036373839616263646566000043
:0832580038CFFF7F01000000E8
:0432600089020008D7
:0432640065020008F7
:103268005858583A204431204432204433204434BA
:10327800204435204436204437204438202000009C
:10328800000000000000050000000000000002002F
:103298000000000000000300000000000000010022
:1032A8000024F4000100000010000000500000207D
:1032B80000000000240200208C020020F4020020FC
:1032C80000000000000000000000000000000000F6
:1032D80000000000000000000000000000000000E6
:1032E80000000000000000000000000000000000D6
:0C32F800000000000000000000000000CA
:040000050800254981
:00000001FF
