:020000040800F2
:1000000000000220F91A000825060008270600084B
:10001000290600082B0600082D0600080000000035
:100020000000000000000000000000002F06000893
:1000300031060008000000003306000835060008FD
:10004000491B0008491B0008491B0008491B000800
:10005000491B0008491B00083D0600084706000828
:10006000491B0008491B0008491B0008491B0008E0
:10007000491B0008491B0008491B0008491B0008D0
:10008000491B0008491B0008491B0008491B0008C0
:1000900051060008491B0008491B0008491B0008BD
:1000A000491B0008491B0008491B0008491B0008A0
:1000B000491B0008491B0008491B0008491B000890
:1000C000491B0008491B0008491B0008491B000880
:1000D000491B0008491B0008491B0008610600086D
:1000E000491B0008491B0008491B0008491B000860
:1000F000491B0008491B0008491B0008491B000850
:10010000491B0008491B0008491B0008491B00083F
:10011000491B0008491B0008491B0008491B00082F
:10012000491B0008491B0008491B0008491B00081F
:10013000491B00080000000000000000491B0008E7
:1001400071060008491B0008491B0008491B0008EC
:10015000491B0008491B0008491B0008491B0008EF
:10016000491B0008491B0008491B0008491B0008DF
:10017000491B0008491B00080000000000000000A7
:08018000491B0008491B00089F
:1001880053B94AB9002908BF00281CBF4FF0FF31F6
:100198004FF0FF3000F00CB8ADF1080C6DE904CE5B
:1001A80001F0FCFCDDF804E0DDE9022304B070474F
:1001B800704700BF10B5054C237833B9044B13B111
:1001C8000448AFF300800123237010BD0C00002009
:1001D80000000000601E000808B5034B1BB103496E
:1001E8000348AFF3008008BD0000000010000020A5
:1001F800601E0008F0B58BB000240594069407949F
:100208000894099401942B4B1A6B42F004021A6368
:100218001A6B02F004020192019A02941A6B42F0DE
:1002280080021A631A6B02F080020292029A039407
:100238001A6B42F001021A631A6B02F00102039270
:10024800039A04941A6B42F002021A631B6B03F0C0
:1002580002030493049B42F2F003059301250795DA
:1002680005A9154800F01AFD05954FF404130693E7
:100278000795124F05A9384600F010FD022605968D
:100288004FF488130693079405A9384600F006FD35
:1002980022462946062000F07BFC062000F088FC58
:1002A80022463146072000F073FC072000F080FC4E
:1002B8000BB0F0BD003802400008024000000240C8
:1002C80072B6FEE708B50E480E4B03600123436083
:1002D800002383604FF08072C2604FF420220261D5
:1002E8004FF440124261037643768376C3760377F0
:1002F800437700F01DFA00B908BDFFF7E1FF00BF22
:10030800980000200064004008B50E480E4B0360BA
:1003180001234360002383604FF08072C2604FF472
:10032800202202614FF440124261037643768376BD
:10033800C3760377437700F0FBF900B908BDFFF7F0
:10034800BFFF00BF700000200068004008B50A48E1
:100358000A4B03604FF4E133436000238360C360BA
:1003680003610C2242618361C36101F0C3F900B9E2
:1003780008BDFFF7A5FF00BF280000200048004087
:1003880000B595B03022002108A801F0DAFB00235F
:100398000393049305930693079301931F4A116CE3
:1003A80041F080511164126C02F080520192019A5E
:1003B80002931B4A116841F480411160126802F4EB
:1003C80080420292029A0222089201210B91102186
:1003D8000C910E920F9308231093402311931292BD
:1003E8000423139308A800F05FFD90B90F2303932B
:1003F80002210491002305934FF4C05306934FF450
:100408008053079303A800F0B9FF20B915B05DF831
:1004180004FBFFF755FFFFF753FF00BF003802400A
:100428000070004008B500F057F9FFF7A9FFFFF783
:10043800E1FEFFF747FFFFF767FFFFF787FFFEE7DC
:1004480082B0002100910B4B5A6C42F480425A64EE
:100458005A6C02F480420092009A01911A6C42F0A0
:1004680080521A641B6C03F080530193019B02B005
:10047800704700BF0038024030B58BB000230593A9
:10048800069307930893099303683E4A934204D05E
:100498003D4A934236D00BB030BD3C4A1368013315
:1004A8001360012B21D000250195394B1A6B42F0BE
:1004B80001021A631B6B03F001030193019B4FF4C4
:1004C800C053059302240694032308930923099330
:1004D80005A9304800F0E2FB2A462146142000F026
:1004E80057FB142000F064FBD5E700230093284B4A
:1004F8001A6C42F000721A641B6C03F000730093CC
:10050800009BD0E700230293214B1A6C42F08062D3
:100518001A641B6C03F080630293029B1B4A1368E6
:1005280001331360012B20D000250495184B1A6B5A
:1005380042F002021A631B6B03F002030493049B4C
:10054800602305930224069403230893092309933F
:1005580005A9114800F0A2FB2A462146402000F0D8
:1005680017FB402000F024FB95E700230393084B7A
:100578001A6C42F000721A641B6C03F00073039348
:10058800039BD1E70064004000680040C0000020E1
:1005980000380240000002400004024010B588B054
:1005A8000023039304930593069307930268194B5A
:1005B8009A4201D008B010BD0024019403F5F83325
:1005C8001A6C42F480221A641A6C02F48022019296
:1005D800019A02941A6B42F004021A631B6B03F02F
:1005E80004030293029B4FF4406303930223049392
:1005F800032306930723079303A9074800F04EFB3C
:1006080022460121272000F0C3FA272000F0D0FA63
:10061800D0E700BF0048004000080240FEE7FEE7C0
:10062800FEE7FEE7FEE770477047704708B500F041
:100638006DF808BD08B5012000F028FC08BD08B514
:10064800022000F023FC08BD08B5024800F023F999
:1006580008BD00BF9800002008B5024801F006F95F
:1006680008BD00BF2800002008B5024800F013F9B3
:1006780008BD00BF70000020034AD2F8883043F458
:100688007003C2F88830704700ED00E010B50446EA
:100698000E4B1A784FF47A73B3FBF2F30C4A1068D6
:1006A800B0FBF3F000F088FA68B90F2C01D90120EB
:1006B8000AE0002221464FF0FF3000F069FA054BAE
:1006C8001C60002000E0012010BD00BF04000020D5
:1006D800000000200800002008B50B4B1A6842F4FF
:1006E80000721A601A6842F480621A601A6842F44A
:1006F80080721A60032000F039FA0020FFF7C6FF65
:10070800FFF79EFE002008BD003C0240034A116826
:10071800034B1B780B441360704700BFC4000020D4
:1007280004000020014B1868704700BFC400002077
:10073800002800F0A18038B5044690F82030D3B1E5
:100748002268136843F001031360FFF7EBFF0546C7
:1007580023685A6812F0010F10D1FFF7E3FF401B1E
:100768000A28F5D9636A43F400336362052384F8E1
:100778002030012038BDFFF77FFEE1E71A6822F03C
:1007880002021A60FFF7CEFF054623685A6812F086
:10079800020F0DD0FFF7C6FF401B0A28F5D9636A80
:1007A80043F400336362052384F820300120E1E735
:1007B800227E012A3DD01A6822F080021A60637EE8
:1007C800012B3BD02268136823F040031360A37EFB
:1007D800012B39D02268136823F020031360E37ECD
:1007E800012B37D02268136843F010031360237F6E
:1007F800012B35D02268136823F008031360637F48
:10080800012B33D02268136823F004031360A36814
:10081800E268134322691343626913436268013A29
:1008280021681343CB6100206062012384F82030E3
:10083800A0E71A6842F080021A60C0E722681368CD
:1008480043F040031360C2E72268136843F02003B3
:100858001360C4E72268136823F010031360C6E727
:100868002268136843F008031360C8E72268136816
:1008780043F004031360CAE70120704770477047CC
:1008880070477047704770477047704770477047A8
:100898007047704770472DE9F84F054603685C6953
:1008A800D3F804809F68D3F80CA0D3F81090D3F83D
:1008B80018B014F001063BD017F0010616D001223B
:1008C8009A6017F0020F08D117F0040F0CD117F037
:1008D800080606D04FF4805608E0FFF7CFFF002641
:1008E80004E0FFF7CEFF01E04FF4006617F4807FC5
:1008F8000DD02B684FF480729A6017F4007F40F097
:10090800968017F4806F00F0968046F4005617F42E
:10091800803F0DD02B684FF480329A6017F4003F67
:1009280040F0938017F4802F00F0938046F400463F
:1009380014F0080F07D01AF0100F04D046F4007610
:100948002B681022DA6014F0040F03D01AF0080F95
:1009580040F0898014F0020F05D02B68DB6813F093
:10096800030F40F0878014F0400F07D019F0100FE4
:1009780004D046F480662B6810221A6114F0200F08
:1009880002D019F0080F79D114F0100F04D02B6899
:100998001B6913F0030F78D114F4003F02D018F04C
:1009A800100F76D114F4803F02D018F0080F77D1D9
:1009B80014F4004F37D018F0040F31D014F4807FAE
:1009C80004D01BF0010F01D046F0010614F4007F9B
:1009D80004D01BF0020F01D046F0020614F4806F19
:1009E80004D01BF0040F01D046F0040614F4006F85
:1009F80016D01BF0700B13D0BBF1400F66D056D841
:100A0800BBF1200F5CD0BBF1300F5CD0BBF1100FF5
:100A180001D146F008062A68936923F070039361B0
:100A28002B6804225A60002E56D1BDE8F88F28465C
:100A3800FFF725FF6BE717F4006F02D046F48046F6
:100A480065E72846FFF71EFF61E72846FFF718FF0E
:100A58006EE717F4002F02D046F4803668E7284680
:100A6800FFF711FF64E72B680822DA602846FFF7D2
:100A78000CFF6FE72846FFF707FF74E72B6808228B
:100A88001A612846FFF703FF7EE72846FFF7FEFEB8
:100A980082E72B6810225A602846FFF7F9FE81E7A3
:100AA8002B6808225A602846FFF7F3FE80E7BBF15F
:100AB800500F0ED0BBF1600FADD146F48076AAE797
:100AC80046F01006A7E746F02006A4E746F04006E1
:100AD800A1E746F080069EE76B6A33436B622846BF
:100AE800FFF7D8FEA1E70000002807DB00F01F028F
:100AF800400901239340024A42F82030704700BF62
:100B080000E100E0002808DB0901C9B200F16040FB
:100B180000F5614080F80013704700F00F000901EC
:100B2800C9B2014B1954704714ED00E000B500F04C
:100B38000700C0F1070CBCF1040F28BF4FF0040CEC
:100B4800031D062B0FD9C31E4FF0FF3E0EFA0CF003
:100B580021EA000199400EFA03FE22EA0E0241EA58
:100B680002005DF804FB0023EEE70000074AD368A3
:100B780023F4E0631B041B0C000200F4E060034351
:100B880043F0BF6343F40033D360704700ED00E0E7
:100B980010B50446054BD868C0F30220FFF7C6FF1E
:100BA80001462046FFF7AEFF10BD00BF00ED00E094
:100BB80008B5FFF799FF08BD0138B0F1807F0BD267
:100BC8004FF0E0235861054AF02182F823100020F5
:100BD800986107221A6170470120704700ED00E014
:100BE80070B50446866DFFF79DFD94F83530DBB28D
:100BF800022B06D080236365002384F8343001205B
:100C080070BD05462268136823F016031360226836
:100C1800536923F080035361236CE3B1226813689E
:100C280023F0080313602268136823F0010313609C
:100C380023681B6813F0010F11D0FFF773FD431BE6
:100C4800052BF5D920236365032084F8350000239C
:100C580084F83430D4E7A36C002BDFD1E3E7E26DEE
:100C68003F239340B360012384F83530002084F893
:100C78003400C5E790F83530DBB2022B03D080236F
:100C8800436501207047052380F8353002681368F2
:100C980023F00103136000207047000000230F2B8E
:100CA80000F2E98070B582B065E085684FEA430ECE
:100CB800032404FA0EF425EA0405CC6804FA0EF4B9
:100CC8002C438460446824EA02044A68C2F3001290
:100CD8009A40224342605CE0DC08083450F8242043
:100CE80003F00705AD004FF00F0E0EFA05FE22EADD
:100CF8000E0E0A69AA4042EA0E0240F824205CE07F
:100D0800072200E0002202FA0EF22A4302345A4D6A
:100D180045F82420594A94686FEA0C0224EA0C0525
:100D28004E6816F4801F01D04CEA0405534CA560A8
:100D3800E46802EA04054E6816F4001F01D04CEA84
:100D480004054E4CE560646802EA04054E6816F432
:100D5800003F01D04CEA0405484C656024682240F5
:100D68004D6815F4803F01D04CEA0402434C2260E0
:100D780001330F2B7DD801229A400C6804EA020C3B
:100D880032EA0404F4D14C6804F00304013C012C59
:100D98008BD94A6802F00302032A09D0C4685D00AF
:100DA8000322AA4024EA02048A68AA402243C260B5
:100DB8004A6802F00302022A8ED004684FEA430E02
:100DC800032202FA0EF224EA02044A6802F003023D
:100DD80002FA0EF2224302604A6812F4403FC7D07A
:100DE80000220192264A546C44F480445464526CA4
:100DF80002F480420192019A9C08A51C1E4A52F8EE
:100E0800255003F0030E4FEA8E0E0F2202FA0EF25F
:100E180025EA02051B4A90423FF474AF02F580624E
:100E280090421AD002F58062904218D002F5806292
:100E3800904216D002F58062904214D002F580628A
:100E4800904212D002F58062904210D002F5806282
:100E580090423FF455AF082255E7012253E702229A
:100E680051E703224FE704224DE705224BE706220C
:100E780049E702B070BD704700380140003C0140AE
:100E880000380240000002407047000008B5054BDA
:100E98005B69034200D108BD024B5861FFF7F4FFBC
:100EA800F9E700BF003C0140002800F0E08170B580
:100EB80082B00446036813F0010F3BD09F4B9B6838
:100EC80003F00C03042B2CD09C4B9B6803F00C0301
:100ED800082B21D06368B3F5803F4FD0B3F5A02F1E
:100EE80052D0964B1A6822F480321A601A6822F49B
:100EF80080221A606368002B50D0FFF713FC054668
:100F08008E4B1B6813F4003F14D1FFF70BFC401BFA
:100F18006428F5D90320B1E1884B5B6813F4800F8E
:100F2800D8D0864B1B6813F4003F03D06368002BAE
:100F380000F09F81236813F0020F54D07F4B9B6809
:100F480013F00C0F3ED07D4B9B6803F00C03082B6D
:100F580033D0E368002B68D0794B01221A60FFF781
:100F6800E1FB0546754B1B6813F0020F54D1FFF7E0
:100F7800D9FB401B0228F5D903207FE16F4A13688B
:100F880043F480331360B5E76C4B1A6842F480224F
:100F98001A601A6842F480321A60ABE7FFF7C2FBA6
:100FA8000546664B1B6813F4003FC3D0FFF7BAFB36
:100FB800401B6428F5D9032060E1604B5B6813F49B
:100FC800800FC6D15D4B1B6813F0020F03D0E36896
:100FD800012B40F05081594A136823F0F803216926
:100FE80043EAC1031360236813F0080F42D0636912
:100FF8006BB3534B0122C3F8802EFFF793FB0546D2
:101008004E4B5B6F13F0020F34D1FFF78BFB401B85
:101018000228F5D9032031E1484A136823F0F80380
:10102800216943EAC1031360DDE7454B00221A60DA
:10103800FFF778FB0546414B1B6813F0020FD2D02F
:10104800FFF770FB401B0228F5D9032016E13C4B43
:101058000022C3F8802EFFF765FB0546374B5B6F10
:1010680013F0020F06D0FFF75DFB401B0228F5D9ED
:10107800032003E1236813F0040F77D02F4B1B6C78
:1010880013F0805F33D1002301932C4B1A6C42F08C
:1010980080521A641B6C03F080530193019B012555
:1010A800284B1B6813F4807F23D0A368012B34D00E
:1010B800052B38D0214B1A6F22F001021A671A6FDC
:1010C80022F004021A67A368002B3DD0FFF72AFB21
:1010D80006461A4B1B6F13F0020F46D1FFF722FB8F
:1010E800801B41F288339842F3D90320C6E00025DB
:1010F800D6E7144A136843F480731360FFF712FBB2
:101108000646104B1B6813F4807FCED1FFF70AFB0D
:10111800801B0228F5D90320B0E0084A136F43F07A
:1011280001031367CFE7054B1A6F42F004021A67F1
:101138001A6F42F001021A67C5E700BF0038024083
:101148000000474200700040FFF7ECFA0646524B99
:101158001B6F13F0020F08D0FFF7E4FA801B41F26F
:1011680088339842F3D9032088E0EDB9A369002BAE
:1011780000F08380484A926802F00C02082A51D095
:10118800022B17D0454B00221A66FFF7CBFA04460C
:10119800414B1B6813F0007F42D0FFF7C3FA001BD6
:1011A8000228F5D9032069E03B4A136C23F08053E9
:1011B8001364DBE7394B00221A66FFF7B3FA0546DA
:1011C800354B1B6813F0007F06D0FFF7ABFA401BC6
:1011D8000228F5D9032051E0E369226A1343626AC1
:1011E80043EA8213A26A5208013A43EA0243E26AD6
:1011F80043EA0263284A5360284B01221A66FFF724
:1012080091FA0446244B1B6813F0007F06D1FFF7C0
:1012180089FA001B0228F5D903202FE000202DE0D1
:1012280000202BE0012B2BD01B4B5B6803F48001C3
:10123800E269914226D103F03F02216A8A4223D112
:10124800616A47F6C0721A40B2EB811F1ED103F4DF
:101258004031A26A5208013AB1EB024F18D103F0AB
:101268007063E26AB3EB026F14D1002006E001203C
:101278007047012002E0012000E0002002B070BDAC
:101288000120FBE70120F9E70120F7E70120F5E756
:101298000120F3E70120F1E700380240000047424F
:1012A80008B5334B9B6803F00C03042B5BD0082B69
:1012B8005BD12F4B5A6802F03F025B6813F4800F32
:1012C8002CD02B4B5868C0F388104FEA401CBCEB5D
:1012D800000C6EEB0E0E4FEA8E1343EA9C634FEA46
:1012E8008C11B1EB0C0163EB0E03DB0043EA517385
:1012F800C90011EB000C43F10003590200234FEA27
:101308004C2041EADC51FEF73BFF194B5B68C3F305
:10131800014301335B00B0FBF3F008BD144B586880
:10132800C0F388104FEA401CBCEB000C6EEB0E0EAD
:101338004FEA8E1343EA9C634FEA8C11B1EB0C0120
:1013480063EB0E03DB0043EA5173C90011EB000C99
:1013580043F10003990200234FEA8C2041EA9C5193
:10136800FEF70EFFD1E70348D7E70348D5E700BFEC
:101378000038024000127A000024F400002800F02F
:101388009B8070B50D4604464F4B1B6803F007035E
:101398008B4208D2CBB24C4A1370136803F0070390
:1013A8008B4240F08B80236813F0020F17D013F0A4
:1013B800040F04D0454A936843F4E05393602368CC
:1013C80013F0080F04D0414A936843F460439360D4
:1013D8003E4A936823F0F003A1680B4393602368A7
:1013E80013F0010F32D06368012B21D09A1E012A15
:1013F80025D9364A126812F0020F61D033498A683B
:1014080022F0030213438B60FFF78CF906462F4B3B
:101418009B6803F00C036268B3EB820F16D0FFF7EA
:1014280081F9801B41F288339842F0D9032042E0C9
:10143800264A126812F4003FE0D101203BE0234A1B
:10144800126812F0007FD9D1012034E01E4B1B68CE
:1014580003F00703AB4207D9EAB21B4B1A701B68AB
:1014680003F00703AB422DD1236813F0040F06D015
:10147800164A936823F4E053E1680B4393602368AA
:1014880013F0080F07D0114A936823F460432169C9
:1014980043EAC1039360FFF703FF0C4B9B68C3F358
:1014A80003130B4AD35CD8400A4B18600A4B1868E0
:1014B800FFF7ECF8002070BD012070470120FAE723
:1014C8000120F8E70120F6E7003C0240003802401E
:1014D800801E00080000002008000020014B18684A
:1014E800704700BF0000002008B5FFF7F7FF044B66
:1014F8009B68C3F38223034AD35CD84008BD00BF6E
:1015080000380240781E000808B5FFF7E7FF044BD3
:101518009B68C3F34233034AD35CD84008BD00BF7D
:1015280000380240781E0008026802F10C0353E8F4
:10153800003F23F490730C3242E800310029F3D1C4
:10154800026802F1140353E8003F23F00103143248
:1015580042E800310029F3D1036B012B05D0202389
:1015680080F84230002303637047026802F10C03DD
:1015780053E8003F23F010030C3242E80031002901
:10158800F3D1ECE790F84130DBB2212B01D00220F7
:1015980070478368B3F5805F17D0036A5A1C0262EC
:1015A8001A7803685A60C38C9BB2013B9BB2C38410
:1015B8004BB90268D36823F08003D3600268D3680C
:1015C80043F04003D360002070470369002BE4D147
:1015D800036A1B880268C3F308035360036A023373
:1015E8000362E0E710B504460268136923F4405328
:1015F800C1680B431361836802691A4343691A433C
:10160800C3691A430168CB6823F4164323F00C031B
:101618001343CB600268536923F4407381690B4319
:1016280053610368314A934206D002F580629342BF
:1016380002D0FFF759FF01E0FFF766FFE369B3F552
:10164800004F29D00021031849411B1841F100011E
:10165800C90041EA5371DB00181863684FEA830236
:101668004FEA937341F10001FEF78AFD204AA2FB7D
:1016780000314909642303FB11031B013233A2FB28
:1016880003235B0903F0F00202EB011203F00F03DE
:10169800216813448B6010BD0023021843EB03013B
:1016A800121841F10001C90041EA5271D200101824
:1016B80041F10001626892185B41FEF761FD0C4A36
:1016C800A2FB00314909642303FB1103DB00323319
:1016D800A2FB03235B095A0002F4F87202EB011221
:1016E80003F00703216813448B60D4E7001001401E
:1016F8001F85EB5160B310B5044690F8413013B321
:10170800242384F841302268D36823F40053D3603B
:101718002046FFF767FF2268136923F4904313619B
:101728002268536923F02A0353612268D36843F47B
:101738000053D36000206064202384F8413084F88B
:101748004230606310BD80F84030FEF727FFD7E7CE
:1017580001207047704708B50168CA6822F0400246
:10176800CA60202280F84120FFF7F4FF002008BD5E
:101778007047704708B5806B0023C385C384FFF7A3
:10178800F8FF08BD704790F84230DBB2222B69D1D0
:101798008368B3F5805F4FD0826AB3F5805F04D069
:1017A800002B56D10369002B53D103685B68137073
:1017B800836A01338362C38D9BB2013B9BB2C385AD
:1017C800002B51D100B583B00268D36823F0200301
:1017D800D3600268D36823F48073D36002685369C6
:1017E80023F001035361202380F842300023436330
:1017F800036B012B33D100230363026802F10C034E
:1018080053E8003F23F010030C3242E8003100296E
:10181800F3D103681A6812F0100F06D00022019263
:101828001A6801925B680193019B818DFFF7AAFFFB
:10183800002003B05DF804FB0269002AACD1826A7B
:1018480003685B68C3F308031380836A0233836207
:10185800B1E703685B6803F07F031370A8E7FFF73D
:1018680087FFE5E7022070470020704710B582B077
:10187800044602681368D068516913F00F0F09D144
:1018880013F0200F0CD010F0200F09D02046FFF7DE
:101898007AFF16E011F0010115D110F4907F12D1F2
:1018A800216B012979D013F0800F03D010F0800F3D
:1018B80040F0148113F0400F03D010F0400F40F0B7
:1018C800118102B010BD13F0010F06D010F4807F13
:1018D80003D0626C42F00102626413F0040F04D07A
:1018E80019B1626C42F00202626413F0020F04D074
:1018F80019B1626C42F00402626413F0080F07D059
:1019080010F0200F00D119B1626C42F00802626435
:10191800626C002AD5D013F0200F02D010F0200FEF
:1019280029D123685B6903F04003626C12F0080F49
:1019380000D163B32046FFF7F7FD23685B6913F016
:10194800400F20D0226802F1140353E8003F23F02F
:101958004003143242E800310029F3D1E36B73B13C
:10196800624A1A65E06BFFF785F90028A9D0E06B99
:10197800036D9847A5E72046FFF705FFD1E7204606
:10198800FFF7F7FE9DE72046FFF7F3FE99E72046AD
:10199800FFF7EFFE0023636493E713F0100F82D084
:1019A80010F0100F3FF47FAF0023019313680193E9
:1019B80053680193019B536913F0400F52D0E26BB7
:1019C80013685B689BB2002B3FF47BAFA18D9942F3
:1019D8007FF677AFE385D369B3F5807F37D0226888
:1019E80002F10C0353E8003F23F480730C3242E801
:1019F80000310029F3D1226802F1140353E8003FB3
:101A080023F00103143242E800310029F3D122689F
:101A180002F1140353E8003F23F04003143242E874
:101A280000310029F3D1202384F8423000232363B6
:101A3800226802F10C0353E8003F23F010030C3234
:101A480042E800310029F3D1E06BFFF7C9F802231F
:101A58006363A18DE38D9BB2C91A89B22046FFF753
:101A680091FE2EE7A18DE38D9BB2C91A89B2E38D51
:101A78009BB2002B3FF425AF00293FF422AF226828
:101A880002F10C0353E8003F23F490730C3242E850
:101A980000300028F3D1226802F1140353E8003F14
:101AA80023F00103143242E800300028F3D1202348
:101AB80084F8423000232363226802F10C0353E8C0
:101AC800003F23F010030C3242E800300028F3D125
:101AD800022363632046FFF755FEF2E62046FFF730
:101AE80051FDEEE62046FFF736FEEAE67D170008D0
:101AF800DFF834D0FEF7C0FD0C480D490D4A00232D
:101B080002E0D458C4500433C4188C42F9D30A4AAA
:101B18000A4C002301E013600432A242FBD300F018
:101B280019F8FEF77FFC7047000002200000002033
:101B38000C000020A01E00080C000020C800002097
:101B4800FEE702440346934200D1704703F8011BA5
:101B5800F9E7000070B50D4D0D4C641BA41000266C
:101B6800A64209D10B4D0C4C00F076F9641BA41069
:101B78000026A64205D170BD55F8043B98470136AA
:101B8800EEE755F8043B98470136F2E7981E00083F
:101B9800981E0008981E00089C1E00082DE9F047B2
:101BA800089D0E4604460F46002B4AD194468C45A4
:101BB800B2FA82F260D942B1C2F12003974020FA0A
:101BC80003F30CFA02FC1F4394404FEA1C4E1FFA21
:101BD8008CF6B7FBFEF1230C0EFB117743EA0743A3
:101BE80001FB06F098420AD91CEB030301F1FF3709
:101BF80080F01581984240F21281023963441B1A21
:101C0800A4B2B3FBFEF00EFB103344EA034400FB1E
:101C180006F6A6420AD91CEB040400F1FF3380F053
:101C28000081A64240F2FD806444023840EA014047
:101C3800A41B00211DB1D4400023C5E90043BDE821
:101C4800F0878B4205D90DB1C5E90001002108468E
:101C5800F5E7B3FA83F1002946D1B34202D38242B1
:101C680000F2F580841A66EB030201201746002D66
:101C7800E5D0C5E90047E2E7002A40F09380A1EBF0
:101C88000C034FEA1C471FFA8CFE0121B3FBF7F641
:101C980007FB1630230C43EA00430EFB06F098427C
:101CA80008D91CEB030306F1FF3802D2984200F270
:101CB800D08046461B1AA4B2B3FBF7F007FB1033DB
:101CC80044EA03440EFB00FEA64508D91CEB0404B5
:101CD80000F1FF3302D2A64500F2B6801846A4EB05
:101CE8000E0440EA0640A5E7C1F120078B4022FA1E
:101CF80007FC4CEA030C06FA01FE20FA07F426FA60
:101D080007F344EA0E0400FA01F84FEA1C404FEAD0
:101D18001449B3FBF0FE1FFA8CF600FB1E3349EAA8
:101D280003430EFB06F9994502FA01F20BD91CEBA5
:101D380003030EF1FF3A80F08580994540F28280D6
:101D4800AEF1020E6344A3EB0909A4B2B9FBF0F3A8
:101D580000FB139944EA094403FB06F6A64208D996
:101D68001CEB040403F1FF3068D2A64266D9023B9B
:101D7800644443EA0E40A41BA0FB02E6B442734647
:101D8800B14652D34FD05DB1B8EB030264EB0904FE
:101D980004FA07F722FA01F31F43CC40C5E900749F
:101DA80000214CE7C2F1200120FA01F30CFA02FCF1
:101DB80026FA01F1964033434FEA1C471FFA8CFE7E
:101DC800B1FBF7F007FB1016190C41EA064100FBBE
:101DD8000EF68E4204FA02F408D91CEB010100F158
:101DE800FF382DD28E422BD902386144891B9BB211
:101DF800B1FBF7F607FB161143EA014306FB0EF1A8
:101E0800994208D91CEB030306F1FF3814D2994212
:101E180012D9023E63445B1A46EA004136E7394666
:101E2800EDE6184602E7F045ADD2BEEB020366EBDD
:101E38000C060138B146A6E74646ECE7034698E7A4
:101E48004046D3E7D6467EE76444023847E708466B
:101E58000DE7023E63442DE7F8B500BFF8BC08BCA7
:101E68009E467047F8B500BFF8BC08BC9E46704750
:101E78000000000001020304000000000000000050
:081E880001020304060708092A
:081E900014FDFF7F01000000BA
:041E9800E10100085C
:041E9C00BD0100087C
:0C1EA0000024F40001000000100000000D
:0400000508001AF9DC
:00000001FF
